:020000040000FA
:060000000201070221B617
:03002B0002262F7B
:0300530002222C5A
:03006B000225B4B7
:03007B000225D388
:10008300022013E5C754F84401F5C77901220000A3
:100093000080FB120086B900030200F1E4792178A5
:1000A30008B800028004F709D8FCE479297802B87B
:1000B30000028004F709D8FCE49002817854791394
:1000C3008002F0A3D8FCD9FA7AD47B149001377854
:1000D300B579028015E493A3AD82AE838A828B83C4
:1000E300F0A3AA82AB838D828E83D8E9D9E7758288
:1000F300157583A5740312011975829175830074B4
:100103000012011975D00075813F751881751902A8
:10011300759F00020096C09FF59FE473D09F22D085
:1001230083D082C09FE493C0E0740193C0E0740263
:1001330093F59F22FF0000B4000028002800283018
:1001430075A000A000A000A00000080008E001F0D6
:10015300001000100010001000100010005000509C
:1001630000500010001000D0070000000000000F36
:100173000001000500307507001000010081FF0039
:10018300000000FFFFFF190537051F055B05FF0290
:10019300020208025000A0000000E80302B181013E
:1001A30000009C8102A5810100002F1502A181019D
:1001B3000000BF0202A581010000301502E28001A8
:1001C3000000D50202A5810100003115029F8101C3
:1001D3000000D70202A581010000321502A78108A1
:1001E3000000D80202A581010000331502AD810190
:1001F30000003415FF0100FF2002B18101000099C6
:100203008102A581010000981502B9810000000058
:100213000002A38103000006031700AF0BAF0BAF6F
:100223000BAF0BAF0BAF0BAF0BAF0BAF0BAF0BAFFB
:100233000BAF0BAF0B550E670E4F0E01E80305779F
:10024300100AFFFFFF0001307503020106000000E2
:10025300000000000000000000000000000000009B
:10026300000000000000000000FFFF0600800CE813
:10027300030A1A123445678702B18101000096818F
:1002830002A581010000111602A981030000BA141E
:1002930002A581010000121602AB810300001316B0
:1002A30002A381030000BB14F401FA004F4B6965FC
:1002B300660B09536D617274205246763102010553
:1002C3000702031802180418536D61727452462012
:1002D300536D6172746B65790000050705040902AB
:1002E3000704A5120000AB12120122A8A2031201F7
:1002F30022C9A2031201225AA303120122CA8703AD
:10030300120122DD87031201220C88031201224409
:1003130088031201228D8803120122D0880312015F
:1003230022168903120122498903120122708903CB
:100333001201229F8903120122D68903120122EF9F
:1003430089031201223E8A03120122578A031201F2
:10035300229F8A03120122D38A031201223EA8029A
:100363001201223CA902120122A2A902120122C5F2
:10037300A902120122C7A90212012205AA0212012F
:100383002276AA0212012236AB0212012258AB02D4
:10039300120122F4AB021201222BAC0212012270D1
:1003A300AC021201227DAC02120122EDAC02120159
:1003B3002237AD021201223AAD0212012280AD02B0
:1003C30012012283AD021201228DAD02120122001D
:1003D300AE0212012228AE021201225BAE0212010A
:1003E300227FAE021201227CAF0212012220B00250
:1003F3001201228CB002120122C8B00212012200A3
:100403008003120122288003120122558003120166
:10041300228D8003120122F380031201223D810306
:10042300120122A18103120122E981031201222672
:100433008203120122548203120122E98203120170
:1004430022F3820312012200830312012233830366
:100453001201223F830312012257830312012261F7
:1004630083031201221AA10312012228A1031201FC
:100473002240A10312012257A1031201227AA701EC
:100483001201221DA80112012236A901120122AE76
:10049300A901120122D5AA011201220EAB011201F8
:1004A30022A6AB0112012293AC011201223CAD0141
:1004B300120122C4AE01120122ACAF01120122A328
:1004C300B001120122D9B0011201227BB101120144
:1004D30022A1B1011201226DB301120122B3B301B2
:1004E300120122D5B30112012241B4011201220CDF
:1004F300B501120122C6B501120122D2B7011201C0
:100503002268C90212012244CA02120122EECA025F
:100513001201222FCB02120122B6CB021201223189
:10052300CC0212012204CD021201222DCD021201AE
:100533002221CE021201225ECE0212012246CF02F6
:1005430012012277CF021201229DCF02120122064D
:100553009803120122859803120122B09803120115
:1005630022C09903120122EF83031201220584039F
:100573001201222384031201223385031201223D37
:100583008503120122678603120122548703120195
:1005930022C087031201220DD0021201223AD10296
:1005A30012012271D102120122C8D102120122C00A
:1005B300D302120122C994011201225095011201A2
:1005C30022A49601120122B096011201222897015A
:1005D300120122019801120122019901120122FD47
:1005E3009901120122C99A01120122239C011201CD
:1005F30022399C011201225A9C01120122EC9C0116
:10060300120122629D01120122889D0112012235ED
:10061300A0011201223AA0011201225EA2011201DD
:1006230022A5A2011201220BA30112012251A3014F
:1006330012012221A401120122D6A40112012232A5
:10064300A50112012235A50112012281A501120182
:1006530022BDA501120122FCA5011201221EA60141
:1006630012012252A601120122C0A601120122F296
:10067300DA0212012200DB0212012250DB02120114
:10068300226FDB02120122B9DB02120122FCDC021F
:1006930012012294DD02120122D8DD02120122028C
:1006A300DE021201226DDE02120122B1DE0212010C
:1006B3002234DF02120122E3DF0212012258260054
:1006C3001201226826001201220227001201225E73
:1006D30027001201221C28001201223F29001201C7
:1006E300226F29001201229E2900120122542B009D
:1006F300120122A72D00120122063000120122EF5F
:100703003000120122DF3100120122B23300120144
:1007130022AA3600120122C73700120122C1390072
:10072300120122D03A001201225F3C001201224B37
:100733003D001201229A3D001201220A3E001201DD
:1007430022263E00120122773E00120122174300A7
:100753001201221E4400120122804400120122AB26
:1007630044001201226345001201223FF6021201E6
:100773002249F60212012291F602120122A5F60283
:1007830012012236F7021201226DF702120122A88A
:10079300F702120122D1F70212012225F8021201F7
:1007A300223AF8021201225CF80212012271F802C5
:1007B30012012285F8021201229AF802120122D4B0
:1007C300F80212012200F9021201228BF90212012E
:1007D30022CEF902120122F8F90212012223FA02AF
:1007E300120122717E00120122E58A02120122BE49
:1007F3008B021201222D8C02120122688C0212013B
:1008030022A38D02120122558E02120122029102AD
:10081300120122AD91021201228E920212012204D0
:1008230094021201226C94021201229EE40212012C
:1008330022E1E4021201224CE6021201228AE802BA
:100843001201220D9403120122BA9403120122B35E
:100853009503120122F09503120122BA9B031201A0
:1008630022199C03120122B69C03120122E99C0364
:10087300120122179D03120122529D0312012272BB
:100883009D03120122F5DF021201227EE002120112
:10089300223DE1021201224BE2021201226BE40229
:1008A300120122017300120122167300120122E1C8
:1008B3007300120122AE74001201221B7500120193
:1008C30022567500120122F77500120122007700EB
:1008D300120122D877001201225B7800120122E470
:1008E30078001201224D7900120122D779001201FA
:1008F30022247A00120122927A00120122347B0010
:10090300120122E27B00120122027C001201224624
:100913007C001201228E7C00120122AA7C001201AB
:1009230022C97C00120122437D00120122517D0065
:10093300120122E47D001201224E7E0012012227C1
:10094300E902120122A3E902120122E1E9021201E2
:1009530022C5EA0212012234EB0212012278EB02D1
:10096300120122BBEB02120122E8EB021201220662
:10097300EC021201223EEC021201227BEC02120174
:10098300229CEC0212012212ED021201225CED0202
:10099300120122DFB70112012273B901120122B140
:1009A300BB01120122F9BB0112012224BC01120175
:1009B300221ABD011201224ABD01120122A1BD0169
:1009C300120122B4BD01120122F5BD01120122223E
:1009D300BE011201226BBE01120122A7BE01120148
:1009E30022ECBE0112012239BF01120122A1BF0173
:1009F300120122D3C1011201229AC301120122D58D
:100A0300C30112012253C50112012297C50112012C
:100A1300220AC601120122CAC601120122E9C70134
:100A2300120122FAC7011201221195021201228238
:100A330095021201224B9B02120122459C021201D4
:100A430022079E02120122859E02120122CC45003A
:100A5300120122534600120122804600120122C2D3
:100A63004600120122BE4700120122034800120170
:100A7300227F4900120122FC4900120122214A006F
:100A8300120122944A00120122514B001201220D3D
:100A93004C001201228D4C001201225B4D00120109
:100AA30022814D00120122F34D00120122974E00C4
:100AB300120122BC4E00120122284F001201228E85
:100AC3004F00120122C44F0012012268500012018C
:100AD30022015100120122845100120122F051001F
:100AE3001201223C5200120122A25200120122D30F
:100AF30052001201228753001201229D5400120159
:100B030022E65400120122035500120122E35A0087
:100B13001201222B5B00120122185C001201223DFC
:100B23005C00120122525C00120122BA5C00120125
:100B330022FA5C001201220D5E00120122BA5E004D
:100B4300120122AE9E02120122F99E021201220517
:100B53009F02120122D09F02120122E69F0212017C
:100B63002222A0021201225BA00212012293A00200
:100B7300120122E9A002120122FFA0021201223B6C
:100B8300A1021201224EA10212012275A102120139
:100B930022A9A1021201227DA2021201220CA402A7
:100BA30012012208A50212012211A602120122F942
:100BB3007F0012012299D601120122D4D60112011B
:100BC30022D8D9011201222ADB01120122EFDB0113
:100BD300120122E9DE01120122D3DF011201221EDA
:100BE300E00112012238E00112012275E001120135
:100BF3002280E001120122BFE001120122C8E001BC
:100C030012012289E10112012246E201120122A905
:100C1300E2011201220DE3011201228EE30112010E
:100C230022BC81011201221885011201221E8501B5
:100C33001201225F8C011201223791011201225D00
:100C43008E03120122278F031201226B8F031201DD
:100C530022A58F03120122379003120122A69003CB
:100C6300120122AF9003120122BB9003120122CF83
:100C73009003120122F39003120122239103120124
:100C83002200F2021201220DF20212012227F202C5
:100C93001201225AF20212012297F202120122FDDC
:100CA300F20212012212F3021201221DF3021201B7
:100CB300222AF30212012241F3021201224FF3020C
:100CC3001201225AF30212012266F3021201227563
:100CD300F30212012280F302120122A6F30212018F
:100CE300224AF4021201225AF40212012274F4027B
:100CF30012012291F402120122ACF402120122D356
:100D0300F402120122DEF402120122F3F4021201B0
:100D13002207F50212012268F5021201226EF50282
:100D230012012274F5021201227AF50212012292B3
:100D3300F502120122C5F50212012279F201120114
:100D43002207F3011201229CF30112012278F4011C
:100D5300120122ACF401120122BFF4011201223963
:100D6300F501120122C1F601120122E8F601120176
:100D7300226FF701120122AEF701120122BFF70120
:100D830012012234F80112012253F8011201226BDD
:100D9300F801120122AFF901120122B9FB0112017C
:100DA30022EBFD01120122F1FE0112012234FF01A7
:100DB300120122FFC70112012212C901120122FAF4
:100DC300C90112012204CA0112012226CA01120119
:100DD3002232CA011201227FCB01120122ACCB01C4
:100DE300120122CDCC011201220FCD0112012244A6
:100DF300CE0112012214CF0112012263CF0112018D
:100E030022C4CF01120122F9CF0112012232D001F3
:100E1300120122DDD301120122F4D3011201227245
:100E2300D40112012280D401120122C9D40112017A
:100E330022D7D40112012258D501120122C7D501AC
:100E430012012213D6011201220080021201222272
:100E53008002120122FE8102120122768502120112
:100E630022C08602120122A2870212012242FE023E
:100E730012012267FE02120122D8FE02120122E5AC
:100E8300C102120122EEC102120122F7C1021201B4
:100E9300221BC3021201220CC5021201223AC5020F
:100EA30012012265C50212012293C502120122BE5C
:100EB300C502120122FCC50212012228C602120138
:100EC3002265C60212012290C602120122DCC6026A
:100ED30012012233C70212012273C702120122C276
:100EE300C702120122EDC70212012233C802120106
:100EF3002261C8021201228CC802120122B9C8025F
:100F0300120122DCC80212012214A403120122409E
:100F1300A40312012299A403120122A3A403120120
:100F230022B3A40312012268A503120122EC5E007E
:100F3300120122436100120122F3620012012250C6
:100F43006300120122506400120122CD64001201D9
:100F5300225565001201227A6500120122556800AC
:100F6300120122C96800120122B86900120122EE9F
:100F73006900120122316A00120122B26B001201D0
:100F830022F46B001201223D6C00120122A66C00B8
:100F9300120122C86C00120122E26C00120122002D
:100FA3006E00120122106E00120122936F001201D3
:100FB30022B36F00120122E96F0012012265710052
:100FC300120122A27100120122DC7200120122A37B
:100FD300ED02120122F3ED021201222DEF021201A2
:100FE300229CEF0212012240F0021201225FF00262
:100FF300120122ADF002120122EFF002120122B21D
:10100300A503120122F1A50312012227A60312014F
:1010130022E7A103120122F7A10312012206A20370
:10102300120122A5A203120122229F03120122A56B
:101033009F031201220BA003120122BDA40312017C
:1010430022DAA403120122F1A403120122EF99036D
:10105300120122039A031201225D9A0312012278DC
:101063009A03120122E39A03120122EE9A03120158
:1010730022019B03120122529B031201227C9B0338
:1010830012012265A30312012286A303120122AFD8
:10109300A303120122C5A30312012207A403120111
:1010A30022ADD502120122B7D502120122F7D502D1
:1010B30012012240D60212012278D602120122CE58
:1010C300D602120122EBD602120122F4D602120139
:1010D3002239D70212012262D70212012277D702E4
:1010E300120122E7D70212012274D802120122C888
:1010F300D802120122EBD8021201226AD90212018C
:1011030022A5D902120122DAD902120122ECD90254
:101113001201220BDA0212012214DA02120122C690
:10112300DA02120122809D03120122D19D031201D2
:10113300225A9E03120122C49E03120122529103DA
:101143001201227A91031201226F92031201229457
:10115300920312012223930312012224A0031201FA
:10116300220A960312012240960312012273960368
:10117300120122CC9703120122857F001201229BC8
:101183007F00120122A57F0012012281FF011201BB
:101193002270B9021201222ABA0212012265BA028E
:1011A30012012296BA0212012206BB021201225C2C
:1011B300BB02120122B0BB021201229DBC0212012A
:1011C3002296BD0212012217BF02120122CBBF02D7
:1011D30012012234C00212012247C0021201222C42
:1011E300C10212012285C1021201224BFA0212012D
:1011F3002261FA0212012205FB0212012244FB02C0
:1012030012012261FB0212012292FB02120122DF70
:10121300FB0212012212FC021201224DFC021201F6
:1012230022D8E40112012260E801120122EFE90150
:1012330012012246EA0112012265EA01120122E3A8
:10124300EA0112012269EC011201223CED011201B3
:1012530022F6F001120122DEF1011201223B8B037F
:101263001201229E8B03120122BB8B031201223E29
:101273008C03120122778C03120122448D03120185
:1012830022EEB0021201227CB2021201224DB602FA
:1012930012012273B60212012296B602120122E74C
:1012A300B60212012285B802120122F6B802120117
:1012B30022FBA503120122E0FF01E066701008A3E0
:1012C300E066700A08A3E066700408A3E06622C320
:1012D300E7960809E7960809E7960809E79622C3FF
:1012E300E09608A3E09608A3E09608A3E09622C040
:1012F30008C3E096F50808A3E096420808A3E09621
:10130300420808A3E09645087001D3D008220808D4
:1013130008EAC0E0EBC0E086F0E7A4FA180986F01B
:10132300E7A42AFA180986F0E7A42AFA180986F02E
:10133300E7A42AFA1986F0E7A4FBE5F02AFA1908CC
:1013430086F0E7A42BFBE5F03AFA190886F0E7A448
:101353002BFBE5F03AFA18180986F0E7A4C5F02B41
:10136300FBE43AFA1908E7C5F0C6A426F6E5F03B14
:10137300FBE43AFA1886F0E7A4F6E5F00826F6E46B
:101383003B08F6E43A08F6D0E0FBD0E0FA22E4CFDB
:10139300C0E0E4CEC0E0E4CDC0E0E4CCC0E075F052
:1013A30020E626F608E633F608E633F608E633F6D3
:1013B300181818EC33FCED33FDEE33FEEF33FFC3A7
:1013C300EC9709ED9709EE9709EF97191919400F53
:1013D300FFEC97FC09ED97FD09EE97FE191906D569
:1013E300F0BFECF709EDF709EEF709EFF719191953
:1013F300D0E0FCD0E0FDD0E0FED0E0FF2212146884
:101403001818181213911214571919192212145774
:10141300191919080808E618181820E7E01213919B
:1014230012146818181822090909E719191920E76D
:10143300DC080808E618181820E7030213911214B1
:1014430068181818121391121468181818121457E0
:1014530019191922E4C397F709E497F709E497F7F1
:1014630009E497F722E4C396F608E496F608E496AF
:10147300F608E496F6226017080808C6A2E713C622
:1014830018C613C618C613C618C613C6D5E0E92274
:101493006016080808C6C313C618C613C618C613B1
:1014A300C618C613C6D5E0EA2270090808082260E8
:1014B30016181818C6C333C608C633C608C633C6BB
:1014C30008C633C6D5E0EA22E627F60809E637F66A
:1014D3000809E637F60809E637F622E026F608A3F8
:1014E300E036F608A3E036F608A3E036F622E02657
:1014F300F008A3E036F008A3E036F008A3E036F0E6
:1015030022C3E697F60809E697F60809E697F60870
:1015130009E697F622C3E0C696F608A3E0C696F658
:1015230008A3E0C696F608A3E0C696F622C3E096A3
:10153300F008A3E096F008A3E096F008A3E096F085
:1015430022E056F608A3E056F608A3E056F608A3F1
:10155300E056F622E056F008A3E056F008A3E05662
:10156300F008A3E056F022E0F608A3E0F608A3E0B3
:10157300F608A3E0F622E6F008A3E6F008A3E6F0F7
:1015830008A3E6F022E0FAA3E0FBA3E0FCA3E0FD5E
:1015930022E0FCA3E0FDA3E0FEA3E0FF22ECF0A326
:1015A300EDF0A3EEF0A3EFF022E0F8A3E0F9A3E05F
:1015B300FAA3E0FB22E8F0A3E9F0A3EAF0A3EBF03F
:1015C30022CAC0E0E6F0A308DAFAD0E0FA22CAC0E1
:1015D300E0E0A3C582CCC582C583CDC583F0A3C596
:1015E30082CCC582C583CDC583DAE6D0E0CA22C3E7
:1015F300E498F8E499F91216338026C3E49AFAE4DE
:101603009BFBE920E7E9121633E498F8E499F92201
:10161300C3E498F8E499F9121633E498F8E499F9D5
:10162300C3E49AFAE49BFB22EB20E7CFE920E7E04F
:10163300B90010BB0008E88AF084F8AAF022E4FBA2
:10164300C8FA22EB70227B10C833C8C933C93350A0
:1016530007C39AC3DBF280069A50012ADBEAC83338
:10166300F4C8C933F4C9FA2275F008E4C833C8C909
:1016730033C933C99AC99B5004C92AC93BD5F0EC75
:10168300FBC833F4C8E4C9FA22600D08C6A2E71305
:10169300C618C613C6D5E0F322600C08C6C313C62A
:1016A30018C613C6D5E0F422700422600D18C6C311
:1016B30033C608C633C6D5E0F41822251810AF0880
:1016C300F518400C15198008F51840021519D2AF0A
:1016D3002200C0D0251810AF08F518500C0519804A
:1016E30008F51850020519D2AFD0D0222518F5827B
:1016F30010AF08F518400C15198008F518400215AD
:1017030019D2AF851983222518F582E43519F5839B
:10171300222518F8E43519F9222518FAE43519FBBE
:10172300222518FCE43519FD22E4732518C582C06F
:10173300E0E51934FFC583C0E0E518C3958224F8BA
:1017430010AF0885831985821880088583198582DF
:1017530018D2AFCEF0A3E520F0A37808E608F0A3F3
:10176300DEFAEFF0A3E58124FAF8E608F0A3E60831
:10177300F0A3E608F0A30808E608F0A3E608F0A340
:1017830015811581D0E0FED0E0F815811581158112
:10179300E8C0E0EEC0E0222518C582C0E0E51934B8
:1017A300FFC583C0E0E518C3958224F910AF08850F
:1017B30083198582188008858319858218D2AFCE54
:1017C300F0A3E520F0A37808E608F0A3DEFAEFF033
:1017D300A3E58124FBF8E608F0A3E608F0A30808D4
:1017E300E608F0A3E608F0A315811581D0E0FED04A
:1017F300E0F815811581E8C0E0EEC0E02285198389
:10180300851882E0A3FEE0A3F5207808E0A3F6089C
:10181300DFFAE0A3FFE0A3C0E0E0A3C0E0E0A3C0E1
:10182300E0E0A3C0E0E0A3C0E010AF088582188524
:1018330083198008858218858319D2AFD083D0821B
:1018430002011F851983851882E0A3FEE0A3F5201A
:101853007808E0A3F608DFFAE0A3FFE0A3C0E0E026
:10186300A3C0E0E0A3C0E0E0A3C0E010AF0885821E
:10187300188583198008858218858319D2AFD08390
:10188300D08222C0D02518C582C0E0E51934FFC537
:1018930083C0E0E518C3958224F310AF088583194C
:1018A3008582188008858319858218D2AFC8F0A372
:1018B300E9F0A3EAF0A3EBF0A37908E709F0A3D8D2
:1018C300FAECF0A3EDF0A3EEF0A3EFF0A3D0E0F079
:1018D300A3D0E0F0A3D0E0F0A3E520F0A3E5F0F07F
:1018E300A322851983851882E0C0E0A3E0F9A3E071
:1018F300FAA3E0FBA37808E0F608A3DFFAE0FCA371
:10190300E0FDA3E0FEA3E0FFA3E0C0E0A3E0C0E0AE
:10191300A3E0F5D0A3E0F520A3E0A3F5F010AF0812
:101923008583198582188008858319858218D2AF2B
:10193300D082D083D0E0F8D0E03274048006740201
:1019430080027401C0E0F4041216EFD0E01215C453
:10195300227404800474028000CCC0E0EDC0E0E592
:1019630018C39CCCAD1950011D10AF068C188D19EE
:1019730080068C188D19D2AF1215D1D0E0FDD0E0BE
:10198300FC22D083D082E9C0E0E493A3C386F0C5F0
:10199300F095F0F908E493A386F0C5F095F0700B89
:1019A300E493A3C3994005E9048002A3E475F0021C
:1019B300A42582F582E5F03583F583D0E0F9E4933D
:1019C300A3C0E0E493C0E022D083D082ECC0E0ED7A
:1019D300C0E0E493A3FCE493A3FDED4C600D121A65
:1019E30017EC24FFFCED34FFFD80EFE493A3FCE44C
:1019F30093A3FDED4C600D121A56EC24FFFCED345D
:101A0300FFFD80EFD0E0FDD0E0FCE493A3C0E0E471
:101A130093C0E022C0E0C3E4939608740193961840
:101A2300400FE493667008087401936618700070A1
:101A330019A3A3C3E49396087401939618A3A34030
:101A43000DD0E0D0E0D0E0021A07A3A3A3A3A3A381
:101A5300D0E022C0E0C0F088F0E493667008087418
:101A6300019366187000A8F0A3A3700BD0F0D0E028
:0E1A7300D0E0D0E0021A07A3A3D0F0D0E0220A
:101A840074F612179AEAFEEBFF8C088D09EA2434E7
:101A9400F8E43FF9E8FCE9FDEA2435121E2BFAEEDE
:101AA4002437121E2BF88508F0A4C885F00A85098E
:101AB400F0A4250AF9EA28F8E439F97A257B00121A
:101AC4001633EA8C828D83F0FA131313541F121EFB
:101AD4001F245DF582E439F583E0C0E074075AF809
:101AE400D0E0B800028004C313D8FCA2E0EE500892
:101AF4002434F582E43F80142436121E2BF5F0EAD8
:101B040084A8F0121E202438F582E439F583E0F924
:101B14007F0302184674F712179AEAFEEBFFEA24D1
:101B240034121E2BC0E0EA2435F582E43FF583D05D
:101B3400E0F08A828B83A3A3A3A3A3A3A3C082C040
:101B4400838A828B83A3A3A3A3A3E0F8A3E0F9D0A1
:101B540083D082E0C398F508A3E099F509EA2480CC
:101B6400121E2B6401703EEA2481F582E43FF58362
:101B7400C082C0838A828B83A3A3A3A3A3E024018E
:101B840008A3E03400F9D083D082E0687003A3E0B6
:101B94006970127CB67D04120AEFEE2480F582E4AB
:101BA4003FF583E4F0AC08AD09EEFAEFFB121A84BA
:101BB400E9F91225A67F02021846C082C08385185F
:101BC40082851983E0F8A3E0F9C3EA9CEB9D5010E9
:101BD400C3EC98ED99401BC3EA98EB995014800E1E
:101BE400C3EA98EB994007C3EC98ED994004790156
:101BF40080027900D083D08222EAC39CFAEB9DFB59
:101C04002274EF12179A900376E064086005E0648A
:101C140007702A9061C8E060249003A4E0F4601D7A
:101C2400E0F875F010A4C8AAF02AF974A628FE7486
:101C34000339FF8E82F583A3A3A3E07003021D1E64
:101C4400906060E0C0E0EE2468F582E43FF583D064
:101C5400E0F0750C27750D05750800750900E5D9C8
:101C640014F50AE5D95403F50E602F7403650E606C
:101C74001DE50A6008EE2467121E2B601D900522E4
:101C8400E06401602C121E28601278048010121E79
:101C940028602CE50AC39405502580637800E50A82
:101CA400C398FA95E0FB1209A58A088B09EA4B70E0
:101CB40005120D1D8064121E2870048A0C8B0DE51C
:101CC4000A6012850C82850D83F50BE5D9F0A31506
:101CD4000BE50B70F6121E28604574FC250AF50A04
:101CE400780C121941AC0AA90EEEFAEFFB120BA9FB
:101CF40074021216D4E97027AA08AB0912112B79C1
:101D04003D8E828F83A3A3A3A3E0FA7B0012080D68
:101D1400EEFAEFFB120B13120BBB7900021E1A74BE
:101D240003650E6053E50AF5107511007810121959
:101D340041AC0CAD0DAA08AB09120B6D740212165E
:101D4400D4EE2468121E2B64807004747F8001E03A
:101D5400F50C780C121945E50EF50C780C121945A2
:101D6400A90AAC08AD099003A4E0FA7B001207E3CA
:101D740074021216D4021E15850C82850D83E0C3ED
:101D8400940E5011E0F874D428F582E43480F5837D
:101D9400E0650A6069850C82850D83E0C0E0EE246D
:101DA400F7F582E43FF583D0E0F0A2AFE433FCC260
:101DB400AF7A0080010AEE246E121E2BF8EAC39853
:101DC4005013EA121E1F246AF582E439F583E06495
:101DD4000770E28022EE246EF8E43FF9E0FAEE2A7E
:101DE400FAE43FFBEA246AF582E43BF5837407F0E6
:101DF40088828983E004F0ECA2E092AF8013900320
:101E040076E06408600BAC0CAD0DEEFAEFFB120C3F
:101E140033120D2979017F0A021846F8EE28F8E4F6
:101E24003FF9E822EE2484F582E43FF583E022744E
:101E3400F112179A74FC1216BEEAFEEBFF890975BB
:101E44000D00A2AFE433F508C2AF9004BEE0FA90EF
:101E540061D0E0F8748098F895E0F9C3EA98E499C1
:101E6400A2D265D0334003021F1D750D01021F1D50
:101E7400E0601B780A121941AC0EA90FEEFAEFFBD1
:101E8400120BA374021216D47404250EF50E7401F9
:101E9400250EF5D9850FD9E50E6012850A82850BCA
:101EA40083F50CE0F5D9A3150CE50C70F675E195F6
:101EB400EE2463F8E43FF97A007B00A2AFE433F543
:101EC4000AC2AF88828983E0FCA3E0FDEC4D603A4E
:101ED40088828983E0FAA3E0FB8C82F583E0FCA38B
:101EE400E0FD88828983ECF0A3EDF08A828B83E4A1
:101EF400F0A3F088828983E0FCA3E0FDEC4D700A36
:101F040088828983A3A3E4F0A3F0E50AA2E092AF58
:101F140012112B9004BDE004F0EE2463121E2BF882
:101F2400A3E0F9E8496063EE2463121E2B2402F84F
:101F3400A3E034008882F583E5822402F50AE435BF
:101F440083F50BE0F50EA3E0F50FEE2462121E2BD1
:101F5400640170369061D0E0F8121E2860047C049D
:101F640080027C007480C398FA95E0FBE50E2CF89F
:101F7400E43400F9E82402F8500109C3EA98EB9923
:101F8400A2D265D0334003021E749061D0E0F8748D
:101F940080C3989004BEF0E50D60539004BDE060EA
:101FA4004D9004BFE0F89004BDE0C398500C740257
:101FB4006509703A9004C0E060348E828F83A3A3D5
:101FC400A3A3E085188285198312200274021217D4
:101FD4000AE81220029004BCE028F07402121724CC
:101FE400AA18AB1979011208379004BDE4F0E5088A
:101FF400A2E092AF74041216D47F08021846F0A32C
:10200400E4F09004BDE0F8228521878522C622C031
:10201400E074EB121886A2AFE433F508C2AF759BE7
:1020240000906182E0A2E0502DE591A2E050277576
:1020340091FE74016521701E12218A1221A11219C8
:102044005412235574041216D4E9640170057901FD
:10205400120CB1121C05906182E0A2E5505AE59180
:10206400A2E550547591DF900376E064076005E0C3
:102074006408702C12218A74016521703B1221A11D
:1020840012195412235574041216D4E9640170050C
:102094007901120CB17901EEFAEFFB121E338018AC
:1020A400E0640D7013900398E004F064287002E477
:1020B400F07A00E0F9120D2F906182E0A2E640036D
:1020C40002215FE591A2E6400302215F7591BF9072
:1020D4000376E064057008120C5D120C698003122B
:1020E4000C63752100120CBDE9900377F07900129E
:1020F4000CB1120A5F7A017B00900375E0F91210AB
:10210400FB907803E064427052900526E014F0706E
:102114004AC2AF12211A00782AD0E0F618D0E0F6AD
:10212400E59F540770047BFF80027B7FC4C0E07886
:1021340029E6F50A08E65BF50B740B780A12169C7F
:10214400D0E0250AF8906270E0A2E740F8E8C333D3
:10215400906272F0906270E0D2E0F0906181E0A24F
:10216400E35009E5E9A2E3500375E9F7A3E0A2E728
:102174005009E591A2E7500375917FE508A2E0922A
:10218400AF7F080218E59003A4E0F875F010A4C826
:10219400AAF02AF974A628FE740339FF22120C75DA
:1021A4008E828F83E0F8A3E0C82416F582E438F524
:1021B4008322C0E0C0D0C082C083906183E0A2E0EB
:1021C4005009E5BFA2E0500375BFFEE0A2E150094B
:1021D400E5BFA2E1500375BFFDE0A2E25009E5BFEF
:1021E400A2E2500375BFFBE0A2E35009E5BFA2E3FE
:1021F400500375BFF7E0A2E45009E5BFA2E4500321
:1022040075BFEFE0A2E55009E5BFA2E5500375BF35
:10221400DFE0A2E65009E5BFA2E6500375BFBFD0D8
:1022240083D082D0D0D0E032C0E074F2121886E5B8
:10223400A7A2E6500FE5A1A2E6500953A7BF75A1D6
:10224400BF122280E5A7A2E5500CE5A1A2E5500645
:1022540053A7DF75A1DFE5A7A2E15009E5A1A2E13B
:10226400500375A1FDE5A7A2E2500CE5A1A2E2503E
:102274000653A7FB75A1FB7F010218E574F712173B
:102284009A752101900376E064067015120BDF8ABB
:10229400828B83A3A3A3A3A3A3E0FAA3E0FB120C62
:1022A4004BA2AFE433FED2AF90037CE0640170181C
:1022B4007A207B00900375E0F912120F7A207B00DC
:1022C400900375E0F9121101906182E0D2E6F0907A
:1022D4000523E0602185C622801690037BE064011B
:1022E4007008E5C654F84405F5C653BEFC12200C2C
:1022F4007401652160E4EEA2E092AF7F0202184609
:102304008E238F24858228858327851882851983C7
:10231400E0CEA3E0CF852882852783EBC9EAC8ED08
:10232400CBECCA75F010C3E833C8E933C9EA33CA41
:10233400EB33CBC3EA9EF526EB9FF525B35004ABF4
:1023440025AA26EC33CCED33CDD5F0DAAE23AF2479
:102354002274F112179A8A088B098C0A8D0B9081CA
:102364002E7808121544740F12170A780C12156A85
:1023740090812E780C1215447808790C1212D290A0
:10238400814650107808790C12150478081212F25C
:102394004014800E780C7908121504780C1212F28D
:1023A40050047901800279007F0802184674ED1206
:1023B400179A8A088B098C0A8D0B90812E78081243
:1023C4001544741312170A780C12156A90812E782A
:1023D4000C121544780C79081212D240117808793D
:1023E4000C121504AA08AB09AC0AAD0B80227510B7
:1023F400007511007512007513017810790C12150F
:1024040004781079081214CBAA10AB11AC12AD13D6
:102414007F0C02184690812E780812156A8A828BE6
:102424008378081215577F0402184674F512179A18
:102434008C828D83780812156A8A828B83780812BD
:102444001530122487C3E09CF0A3E09D1224794048
:102454002290817A780812156A8A828B837808120E
:1024640014F18A828B83A3A3A3A3E02420F0A3E026
:10247400344EF080A0F088828983C3E09420A3E0E6
:10248400944E22EA2404F8E43BF98C828D83A3A3BE
:10249400A3A3E0FCA3E0FD888289832274F51217CC
:1024A4009A9004D9E0FAA3E0FBE929F8E433F9743B
:1024B400A428F582748039F583E02AF508A3E03B6B
:1024C400F5097808121941908162121588122304C3
:1024D40074021216D48A088B098C0A8D0B74107836
:1024E40008121493AA08AB097F0402184674F11267
:1024F400179A8A0C8B0D8C0E8D0F741112170A12F9
:102504001958741112170AE02401F508A3E03400E5
:10251400F509E4F50AF50B780C790812131190818A
:1025240052780812156A780C7908121311AA0CABA8
:102534000DAC0EAD0F12230474021216D4EA4B60D4
:10254400047A0180027A00EC2AFCE43DFD74131243
:10255400170AE0F8A3E0F9E8FEE9FFECF8EDF97AF0
:10256400717B0212163388088909E4F50AF50B8E8B
:10257400828F837808121579ECF8EDF97A717B0271
:102584001216338A088B09740578081216AB8E82EA
:102594008F83A3A3A3A3E508F0A3E509F07F0802B2
:1025A4001846C082C083E9906000F0D083D08222B4
:1025B400C0E0C0D0E8C0E0A8A8D2AFE58975890022
:1025C400C2C5E8A2E792AFD0E0F8D0D0D0E032C0E4
:1025D400E074F2121886A2AFE433FED2AFE58AA209
:1025E400E5503990082DE0702A90082EE4F0900808
:1025F4002FF090082D04F0438C0490818E1219540E
:102604007A107B00900828E0F91212037404121661
:10261400D480096401700590082FE4F0758A00C223
:10262400EBEEA2E092AF7F010218E5C0E0C0D0E873
:10263400C0E0A8A8D2AFC2C7E8A2E792AFD0E0F842
:0B264400D0D0D0E032C2AF0200002274
:10265000FFFFFFFFFFFFFFFFC082C083E9901597D8
:10266000F0D083D08202011F74F612172EE9900277
:10267000E8F0900348E0F508750900740278081244
:1026800016ABAA08AB0912116D9002E9122B3C603F
:102690006E900348E075F003A4FAABF012116D9050
:1026A0000306122B3C700B9002E912338012117357
:1026B000804D9003061242E97AFF7BFF120FCF7A1A
:1026C00000801EEAF508750900740278081216AB3E
:1026D000123D8574FFF0A31242FDA3A3E4F0A3F022
:1026E0000A900348E0F8EAC39840D879051206D565
:1026F0009002E8E0F91205C17A5F7B0712094502F2
:102700003E2174F412172E8A088B09EB548060471F
:102710009002E8E0F91210E38A0A8B0BAE0AAF0BC5
:10272000EA4F602A8A828B83E064B0701A1206E74F
:10273000E960148E828F83A3A3A3A3E0F9EE24059E
:10274000FAE43FFB1206B7EEFAEFFB1210D1AA082B
:10275000E5096480FB80047A007B0002296A74F238
:1027600012172E74FB1216BEEAFEEBFFEA4F60430F
:10277000740312170A122FE9851882851983ECF069
:10278000A3EDF0740212170AE9F0AA18AB191205AA
:10279000BBE9F5087077741312170AE0F50AA3E095
:1027A000F50BE50A450B60658E828F83122D7DEE59
:1027B0004F700575080280557A067B0012116D8AEC
:1027C0000C8B0DA80CA90DEA497005750813803D06
:1027D0008A828B83E4F0122814A3EEF0A3EF124553
:1027E000C2E50AF0A3E50BF09002EC12292E90024C
:1027F000EC6017E0FCA3E08003EAFCEBFD8C828D2B
:102800008312292E70F38C828D831239A5A9087446
:102810000502455BA3F08A828B83A32274F2121710
:102820002E8908E9F50C750D007403780C1216ABAF
:10283000850C0A850D0B9002EBF09002E91242CE56
:1028400012292C602F1211737900801EE9F50C7586
:102850000D007402780C1216AB9002E9123C3E880F
:1028600082F583A3A3E4F0A3F009900348E0F8E91C
:10287000C39840D8900348E0FA850AF0A4CAA8F0AB
:10288000850BF0A428FB12116D8A0C8B0DAE0CAFDA
:102890000DEA4F7003022922900348E0FC850AF0FC
:1028A000A4CCA8F0850BF0A428FD79001210BF7C01
:1028B000008032EDF50C750D007403780C1216AB28
:1028C0008A828B831229278882F583E4F0122934C7
:1028D000A3A3F0A3F00DEDC3950840D7EE250AFEA3
:1028E000EF350BFF0C900348E0F8ECC3985029EC4F
:1028F000F50C750D007402780C1216AB9002E912FB
:102900002927E82402500109FAE9FB8A82F583EEBF
:10291000F0A3EFF07D0080BEE5089002EBF07900B7
:102920008002791302455E123C42F922A3A31230C1
:1029300001EA4B22A3F088828983A3A3A3A3227474
:10294000F412172E7900EAA2E0501F75080C7509E1
:1029500081780812194179107C047D007A997B15E1
:102960001206CF74021216D4E9F97F04021800C0CF
:1029700082C0839002EC123D44601C88828983A34C
:10298000A3E06A7003A3E06B8882898370E8A3A345
:10299000A3A312338080047A007B0002266174F2C4
:1029A00012172E74FD1216BEEAFEEBFF8518828503
:1029B0001983E4F0A3F0740212170A7401F0900274
:1029C000EF123D44701112087F12116D9002EF1248
:1029D0002B3C7003022B301230D6EE2404F50AE4AF
:1029E0003FF50B850A82F583E024FE603C24FC6001
:1029F0007424FE607E24FE7003022A8024FE70038D
:102A0000022A8D24FE7003022A9A24FE7003022AF1
:102A1000A724FE7003022AB424FC7003022AD524E2
:102A2000FE7003022AED022B2912087F9002F1EAC0
:102A3000F0A3EB122B45120309E96003022B299046
:102A400002F11219588E828F83A3A3A3A3A312426B
:102A5000E985088285098312338012069F74021269
:102A600016D4022B29AC18AD19EEFAEFFB1206EDC5
:102A7000022AF8AC18AD19EEFAEFFB1206F38078D3
:102A8000AC18AD19EEFAEFFB1206F9806BAC18AD7D
:102A900019EEFAEFFB1206FF805EAC18AD19EEFAE4
:102AA000EFFB1207058051AC18AD19EEFAEFFB12DF
:102AB000070B80447402121714880C890D780C12CD
:102AC00019417402121724EEFAEFFB120711740277
:102AD0001216D48023AC18AD19EEFAEFFB120717CB
:102AE000E9F87016740212170AE4F0803CAC18ADD5
:102AF00019EEFAEFFB12071DE9F8E8602C8E828FC1
:102B000083A3E064146022850A82850B83E090022F
:102B1000F1F08518828519831233809002F2122F0A
:102B2000E9E8A3122B45120303EEFAEFFB12067538
:102B3000740212170AE0F9740302455BEAF0A3EB92
:102B4000F0F9EA4922F07CF17D028508828509834B
:102B50001230012274E812172E74FA1216BE740491
:102B600012170AECF0A3EDF08A128B13EA2405F594
:102B70000EE43513F50FEA2402F510E43513F511D0
:102B80008510821236277508007C037D0079007A53
:102B9000F17B021210BFE50E2402F516E4350FF5A5
:102BA000177402121714880C890D780C12194185BC
:102BB0000E82850F83A3A3A3A3E0F50C750D007807
:102BC0000C121941E50E2405F50CE4350FF50D78CE
:102BD0000C12194185168285178312366F1216D48E
:102BE0008A0C8B0DE50C450D7003022D4C80208561
:102BF0001882851983E088828983F0050885188208
:102C0000851983A3E0C0E0122D87D0E0F00508E528
:102C10000A24FBF8E50B34FFF9C3E50898E4994072
:102C200003022D4C7E007F00851282851383A3A3AF
:102C3000A3A3E0F5097809121945E4F514F5157810
:102C4000141219417514EE75150278141219419079
:102C500002EF121958740912170A121958E50A24BA
:102C6000F9F9AC0CAD0D1236811216D4E9600302ED
:102C70002CF3850E82850F83A3A3A3A3A3A3A3E0B4
:102C8000F89002EEE068706BE0F5148E157814127F
:102C900019411242E6850E82850F83A3A3A3A3A345
:102CA000A3A3A31233801210B974021216D4E960E0
:102CB00042123D417034E4F51478141219417CFF3E
:102CC0007DFF79071236901216D48B15A915122D97
:102CD0009C7017850E82850F831244757404121739
:102CE0000A123D2E1236A2022D7A850C82850D83A2
:102CF000122D7DA818A91988148915781412194164
:102D0000740412170A121958851682851783123611
:102D1000511216D48A0C8B0DEE4F7003022BE41265
:102D20002D87EE122D92123638EF122D92F8A3E075
:102D30003400F9E50C4B6003022BEF888289837421
:102D4000FFF00508122D8774FFF00508E5086014F0
:102D50001313543F122FEF120315E96003123C5571
:102D600079008016850E82850F83124475740412D3
:102D7000170A123D2E1239A5790A023608A3A3A319
:102D8000A3E0FEA3E0FF22A8089002F2E02812369A
:102D90003822F00508089002F2E028229002F2EAB8
:102DA000F0A3EBF0EA492274E812172E74FA121617
:102DB000BE740212170A122FE9740412170AECF0FB
:102DC000A3EDF0740212170AE02405123612F583FF
:102DD000E0F50CA3E0F50D740212170AE02402F5E9
:102DE00010A3E03400F511851082123384750800B9
:102DF000750900EA24FCFEEB34FFFF8008050CE5B2
:102E00000C7002050DA808C3EE98EF940050030261
:102E10002F9AA818A919880E890F780E12194185C2
:102E20001482851583A3A3A3A31242C5121941E5F9
:102E3000142405F50EE43515F50F780E12194185A9
:102E40001482851583A3A31242E9AA0CAB0D1205C7
:102E5000D974061216D48A0E8B0FEA4B7003022F18
:102E60009AEA2404F516E4350FF517851682F583E2
:102E7000E0F50CA3E0F50D85188285198312195829
:102E8000AC0EAD0F85108285118312361E1216D43A
:102E9000E9F5096003022F9A740212170A123648E4
:102EA000F5097809121945E4F512F513781212198B
:102EB000417512EE75130278121219419002EF1249
:102EC0001958740712170A121958EEF9AC0EAD0F03
:102ED0001236811216D4E9F5096003022F9AE5082B
:102EE000703BE4F50EF50F780E1219417CFF7DFF63
:102EF00079091236901216D48B0FA90F9002F31293
:102F00002D9F700D740412170A122FDC7911022FF5
:102F1000CB9002EEE024029002F2F080149002F2D4
:102F2000E0FA9002EEE0790024025001096A49704B
:102F30006DA8089002EEE0FAE82AFAE43400FBEE0D
:102F40009AEF9B4055851682851783E0C0E090027A
:102F5000F3122D8CD0E0F00508851682851783A327
:102F6000E0C0E0089002F3122D8CD0E0F00508904C
:102F700002EE1242C51219411242E6A808122FCEE3
:102F80001216D49002EEE02508F50874FF650C7067
:102F90000474FF650D6003022DFDE508601C9002BE
:102FA000F2E0F5F0E50884122FEF12031BE960064A
:102FB0009002F3123C5879008011E50970037509FD
:102FC0000A740412170A122FDCA9090236089002AB
:102FD000F3E028FAA3E034001242A3221242D2E521
:102FE0000CF0A3E50DF022A3A3EAF0A3EBF02290EE
:102FF00002F1F07CF17D028510828511831230018F
:1030000022123995FB2274EC12172E74FC1216BE94
:10301000123AB57402121724850A82850B83123185
:10302000D570030230C61230D6A818A919881089A5
:103030001178101219417CFF7DFF790B850882857C
:1030400009831236961216D41230E0700B850A826C
:10305000850B8312369F807B8E828F83A3A3A3A3CD
:10306000E0F5127812121945E4F512F513781212F0
:1030700019417512F1751302781212194178101264
:103080001941740912170A121958740912170A12F1
:1030900031CE8508828509831236871216D4E9FE5F
:1030A00070157CF17D0285088285098312338012B8
:1030B0000321E97009801A74166E70027E00123CBA
:1030C00055EE7004800B7E01850A82850B831239D0
:1030D000A2EEF90239B7EE2402F508E43FF5092221
:1030E0008A108B119002F2EAF0A3EBF0EA4B227403
:1030F000EC12172E74FC1216BEEAFEEBFF8C0E8D3E
:103100000FEA2405F508E43FF50974021217248537
:1031100008828509831231D570030231BEEE240284
:10312000F50AE43FF50BA818A91988108911781041
:103130001219417CFF7DFF790D850A82850B831270
:1031400036961216D41230E0700B850882850983FA
:1031500012369F80768E828F83A3A3A3A3E0F512FD
:103160007812121945850882850983A3A31219587C
:103170007512F17513027812121941781012194163
:10318000740912170A121958740912170A1231CE4B
:10319000850A82850B831236871216D4E9FE700FDA
:1031A0007CF17D0212337A120327E97009801A74C8
:1031B000166E70027E00123C55EE7004800B7E018C
:1031C0008508828509831239A2EEF90239B7E0F940
:1031D000AC0CAD0D2212398D8A0C8B0DEA4B22748A
:1031E000E812172E74FE1216BE8A168B178C148DD9
:1031F00015EA2405F50CE43517F50DEA2402F50E61
:10320000E43517F50F850E821233848A088B097511
:103210000B007C037D0079007AF17B021210BF75F0
:103220000A00E50814F5100424FFF508E50934FF49
:10323000F509804C9002F1E0FA9002EEE0F8EA28FD
:10324000F8E43400F9E50898E50999500D9002F189
:10325000E0F8E510C3989002EEF0E0F51275130067
:1032600078121219411242E69002F2E02A122FD38C
:103270001216D49002EEE0F89002F1E028F0050A70
:10328000850C82850D83A3A3123C4E400302335F5D
:103290009002F1E0C39508E49509400302335FAE64
:1032A0000AEE2EFEE433FF1233A1AC18AD19124220
:1032B000F3E439FB1205DF8A128B13AC12AD13EA6B
:1032C0004D701B750B011233921239A69002F21247
:1032D000292E600312112BA90B740202360A8516DF
:1032E00082851783A3A3A3A3E0F50B780B121945DE
:1032F000E4F512F51378121219417512EE751302E6
:1033000078121219419002EF121958740712170A15
:10331000121958A910850E82850F8312368712164E
:10332000D4E9F50B70A0123D416003023234E4F59C
:1033300012F51378121219417CFF7DFF790F850E6B
:1033400082850F831236961216D48B13A913122D71
:103350009C60030232341233921236A30232D97CBB
:10336000F17D02850E82850F8312338012032DE9D1
:1033700060030232CC79000232D9850A82850B8340
:103380001230012212338822F583123995FB120381
:10339000F9221233A1123995F9EA85148285158331
:1033A00022850C82850D83E02EF8A3E03F8882F50C
:1033B000832274E812172E74FA1216BE74041217C0
:1033C0000A122FE98C168D17740412170AE02405CF
:1033D000F50EA3E03400F50F740412170AE024027E
:1033E0001236121236277F007E00A818A919880805
:1033F00089097808121941850E82850F83A3A3A33A
:10340000A3E0F5088F097808121941E50E2405F5A7
:1034100008E4350FF5097808121941850E82850FE9
:1034200083A3A312366F1216D48A0C8B0D8024123C
:103430003642F00F123642F00F9002EE1239781237
:1034400019411242E6EFF8122FCE1216D49002EE76
:10345000E02FFFE50C450D607A85188285198312EF
:103460001958AC0CAD0D85148285158312361E12C9
:1034700016D4E9FEE50C2404F510E4350DF511E948
:10348000704B740412170A123648F508780812199E
:1034900045E4F508F50978081219417508EE750933
:1034A0000278081219419002EF1219587407121786
:1034B0000A121958E50A24FAF9AC0CAD0D851482EC
:1034C0008515831236871216D4E9FE603612365EF1
:1034D0001239A5EF70030235F59002F2E0F5F0EF36
:1034E000849002F1F07CF17D0285148285158312AF
:1034F0003380120333E960069002F3123C587900DE
:10350000023608EFF508703DE4F512F51378121253
:1035100019417CFF7DFF7911851482851583123650
:10352000961216D48B13A9139002F3122D9F7009D3
:1035300012365E1236A20236089002EEE0240490A3
:1035400002F2F080359002EEE0F89002F2E0FCE842
:103550002404FAE43400FBEA6C4B60030234D9E53E
:103560000A24FAFAE50B34FFFBE50828F8E43400F6
:10357000F9EA98EB9950030234D9851082851183BA
:10358000E0C0E09002F3E02FF8A3E034008882F579
:1035900083D0E0F00F851082851183A3E0C0E01294
:1035A000362FD0E0F00F74021217148808890978BA
:1035B00008121941740212170A121958850E8285D1
:1035C0000F83A3A31236511216D48A0C8B0DEA4B2B
:1035D000700302342F740212170AE0C0E012362F73
:1035E000D0E0F00F740212170AA3E0C0E012362FE9
:1035F000D0E0023437EE70027E0A850E82850F839A
:103600001236641239A5EEF974061216D47F100230
:103610001800F514A3E03400F51585148222123049
:10362000011205C77402221233888A0A8B0B2212F8
:103630003633229002F3E02FFAA3E034008A82F5B9
:10364000832212363374FF221242D2A3A3A3A3E033
:10365000221242EDAA0CAB0D1205E574042285106E
:103660008285118312447BF9851682851783221285
:1036700042ED850E82850F831230011205D9740642
:1036800022851082851183123001120747740922A6
:103690008510828511831230011206B17402221244
:1036A00039ABE8F0A3E9F079112274EA12172E740D
:1036B000FE1216BE8A088B098C128D13EA2405FEB1
:1036C000E43509FF1239818A0C8B0DEE2406F50EC4
:1036D000E43FF50FEA4B7003023790E5082402F54A
:1036E0000AE43509F50B8A828B83A3A3A3E0A2E544
:1036F00050221237BA8A108B11EA4B60247912AC2F
:103700000CAD0D12337A85108285118312172CE9C6
:10371000F50C707F850E82850F83E06009795280F9
:1037200011750C0E806D850882850983A3A3A3A360
:10373000E0F9E4F508F50978081219418E828F83C3
:10374000A3A3E0F50878081219418E828F83A3A302
:10375000A31219588E828F831242E9850A82850B43
:1037600083123AC71216D4E9F50C7011850E8285C2
:103770000F83E0702C12337A120339802474166997
:103780007011750C00741812170A1242CEE48010E2
:10379000750C01124471851282851383E8F0A3E948
:1037A000F0850E82850F83E0600479008002A90C09
:1037B00074021216D47F0E021800851882851983B0
:1037C00012300112073B2274EC12172E74F71216F6
:1037D000BE8A0A8B0B8C108D11EA2405FEE4350B92
:1037E000FF750C001239818A088B09EA4B700302BD
:1037F0003963E50A2402F50A5002050B8A828B839D
:10380000A3A3A3E0A2E550251237BA8A0C8B0DEAD8
:103810004B604F7912AC08AD0912337A850C828562
:103820000D8312172CE9F50C6003023966850A82B4
:10383000850B83E0F508A3E0F509AA08FB12072F22
:10384000EA4B70197AFF7BFF12072FEA4B700302D5
:1038500039598A828B83E508F0A3E509F0750800E1
:103860008008750C0E02396605089002EBE0F8E559
:1038700008C3984003023959E508F50E750F007426
:1038800003780E1216AB8A828B83A3A3E0250EF871
:10389000A3E0350F123D3670CF8E828F8312399A96
:1038A000122FE98E828F83A3A312399A122FE7EE8B
:1038B0002404F508E43FF509850882F583E0888251
:1038C0008983A3A3A3A3F0A3E4F0EE2405F50EE4FB
:1038D0003FF50F850E82F58312399AA3A3A3A31295
:1038E0002FE77512077513007812121941EEFCEFDD
:1038F000FD740412171C1242A41216D4E4F51278B7
:1039000012121941850882850983E0FC7D00791730
:10391000850A82850B831236961216D47407121705
:103920000A1230E7603885088285098312397812D7
:103930001941850E82850F831242E91242A41216A4
:10394000D4740212172412337A12033FE9602374ED
:103950000712170A123C588019750C098008750C5B
:10396000118003750C011244718510828511831238
:1039700039A5A90C74098041E0F50875090078089B
:1039800022AC18AD198E82F58312398D2212399529
:10399000FB1205DF22E0FAA3E022123001888289BF
:1039A00083221239ABE8F0A3E9F022E0F8A3E0F9B2
:1039B000850E82850F832274041216D47F0C0218A0
:1039C0000074EC12172E123AB5751000EA2402F5B5
:1039D0000CE43FF50D850C82F58312338012072F1E
:1039E0008A088B09EA4B7003023A99850A82850B93
:1039F00083E064016003023A8EAC08AD09AA0AAB09
:103A00000B120723E9606F850882850983122D7FD9
:103A1000EE2406F50AE43FF50B8E828F83A3A312F2
:103A200019588E828F83A3A3A3A3121958850A82E3
:103A3000850B8312195879188E828F831242E9857B
:103A40000C82850D83123AC71216D4E9F8741668F1
:103A5000700B850A82850B83E4F0A38014E9601261
:103A60008E828F83123380850E82850F83EAF0A3C6
:103A7000EBF089108018780E121941AC08AD09EEF0
:103A8000FAEFFB12072974021216D4E9F510AA08FE
:103A9000AB09120735E510700E850C82850D831277
:103AA0003380120345800974166510700375100089
:103AB000A9100239BCEAFEEBFF8C0E8D0FEA24053B
:103AC000F50AE43FF50B2212300112074D7406226D
:103AD00074EA12172E7508007509007E007F0075C4
:103AE0000A00EC2402F510E43DF5118035EC650880
:103AF0007003ED65096003023B8588828983A3A377
:103B0000E06A7003A3E06B707C88828983A3A3A31F
:103B1000A3124475EE28FEEF39FFEA28FAEB39FBD1
:103B2000050A123C4B503BE50AF50C750D00740379
:103B3000780C1216AB851082851183123C3E123D23
:103B400036601FE508450970A48C088D09888289B4
:103B500083122D7D88828983A3A3E02EFAA3E03F00
:103B600080BDE50AC394025003023C397508007514
:103B70000900EE4F600FEEFAEFFB1211258A0E8B53
:103B80000FEA4B70057900023C3B750B00807FE526
:103B90000BF50C750D007403780C1216AB851082B2
:103BA000851183E0250CF50CA3E0350DF50DE50C32
:103BB0002406F514E4350DF515851482123D39609F
:103BC0003AE50C2404F512E4350DF513851282F55F
:103BD00083121958E50E2508FAE50F12429D1216B8
:103BE000D4851282851383E02508F508A3E0350902
:103BF000F509851482851583123C58E50B600D7C10
:103C0000087D007900AA0CAB0D1210BF050BE50B67
:103C1000C3950A5003023B8F85108285118312449D
:103C2000758882F583A3A3A3A3A3A3E50EF0A3E560
:103C30000F122935EEF0A3EFF079010237B5123CEF
:103C40004222E0250CF8A3E0350D229002EBE0F8CB
:103C5000E50AC398229002F212300112112B22744D
:103C6000F012172E8A0E8B0F8C0A8D0B750D0075B6
:103C70000C00804A7916EE2406F508E43FF5098E1B
:103C8000828F83A3A31219588E828F83A3A3A3A329
:103C9000121958850882850983121958850E828564
:103CA0000F83A3A3123AC71216D4E9F50D7416694F
:103CB0007064850882850983E4F0A3F0050C900206
:103CC000EBE0F8E50CC398505EAA0C7B008A088BE9
:103CD00009740378081216AB850A82850B83A3A3A7
:103CE000123D90E8FEE9FF123D37603BEA24010AED
:103CF00050010B9002EBE06A7001EB60148882893E
:103D000083A3A3A3A3A3A3A3A3123D446003023CE4
:103D1000747918023C76E960A3124471741012178A
:103D20000A123D2E1239A5A90D7F0802180012397A
:103D300095F5838A8222F98882F5831242EDEC4D53
:103D4000229002F212447BF9E8492274F612172EEF
:103D50007C0080010C900348E0F8ECC398501FEC05
:103D6000F508750900740278081216AB123D85E05B
:103D70006A7003A3E06B70DCE8FAE9FB80047A0068
:103D80007B00023E219002E9123D908882F5832259
:103D9000E02508F8A3E03509F92274F212172E8AFB
:103DA000088B09750A0080278E828F83A3A3A3A3A3
:103DB00012292C600312112B7C087D007900EEFA89
:103DC000EFFB1210BF8E828F83E4F0A3F0050A127E
:103DD0003C4B5028E50AF50C750D007403780C1265
:103DE00016AB850882850983A3A3E0250CFEA3E01A
:103DF000350DFF8E82F583123D4470AC85088285B7
:103E0000098374FFF0A3F002455E74F612172E12B8
:103E1000441270067A007B008007A3A3A3A3123389
:103E2000807F0202180074F612172EE9FE8C828D34
:103E300083E06402703D124402F508A3E0F9A8088B
:103E40007402687003742969702975080275090085
:103E50007808121941740E12170A121958740E12AA
:103E6000170A121958EEF9120FE174061216D4E966
:103E7000F98002790180AA74E812172E74FB1216D9
:103E8000BEE9851882851983F08A168B17ECFEED42
:103E9000FF7510008C82F583A3A3A3E0A2E4502A4F
:103EA000741D12170A1237C08A828B83E5824583FC
:103EB0007003024293790AEEFCEFFDAA16AB1712CB
:103EC000172CE9F5106003024296741F12170AE0DE
:103ED000F508A3E0F509742112170AE0F50AA3E03A
:103EE000F50B742312170AE0F50EA3E0F50F8E828E
:103EF0008F83E06402600302423FA3124475850889
:103F000082850983A3858212858313EE2406F50C2E
:103F1000E43FF50D888289831242F3F514E439F504
:103F20001578141219CB0100002801284E3F070014
:103F300002281A400328833F00293B41012966419A
:103F40000229044103293B410429DC413F42E50E9B
:103F5000450F600302423A850C82850D8312447539
:103F6000E8FAE98882F583E0850A82850B831242AC
:103F7000FD1242AA1219418A828983A3E0FCA3E0C0
:103F80000241C8E50E450F600302423A850A828568
:103F90000B837401F01242DB850882850983F07C73
:103FA000007D008E828F83A3A3A3A3E02401FAA344
:103FB000E03400FB1205DFEA4B60458A828B83E028
:103FC0002402F8850A82850B83E028F0EA2404F8AD
:103FD000E43BF98882F583E08512828513831243DE
:103FE00003F08A828B831242AA1219418A828B8340
:103FF000A31242E9E5082403FAE43509FB0241CDA6
:10400000850A82850B83E02404F07C047D0079001E
:10401000AA12AB131210BF024296E50E450F6003C1
:1040200002423A1242DBFEA3E0FF850A82850B833F
:104030007404F0EE850882850983F0EF851282858D
:104040001383F074031217241243F470030240E543
:104050008A828B83A3A3122D7D7401121714880EFC
:10406000890F780E121941740512170A1219587C1B
:10407000FF7DFF1205E574041216D4EA4B703385F8
:104080000C82850D831242C5121941850C82850D63
:1040900083A31219587C027D007AAF7B811203E75B
:1040A00074041216D4E9700A740112170A74FFF02E
:1040B000A3F08E828F83E064027034750C02750D5C
:1040C00000780C1219418E828F83A31242E9E50811
:1040D0002404FAE412429D1216D4850A82850B83C9
:1040E000E024028009740112170AEEF0A3EFF074C5
:1040F0000112170A1242BBF0740112170AA31242EE
:10410000B3024234E50E450F600302423A850C8249
:10411000850D831242CE1242E9AA16AB17120FE7A1
:10412000850A82850B837402F0850882850983EAFB
:10413000F0851282851383EB024237E50E450F604E
:104140000302423A1242DBF8A3E0F9850A82850BAA
:10415000837402F0E8850882850983F0E98512827C
:10416000851383024237850C82850D8312338012BA
:1041700010A1EAF8C3950EE4950F405AEA650E4582
:104180000F700478008021851882851983E0FCE592
:104190000E2CFCE4350FFDC3EC9AED94005003E0C7
:1041A0008005E50EC8C398F8E8850A82850B83F080
:1041B000F50A750B00780A121941850C82850D836A
:1041C000E0250EFCA3E0350FFDAA08AB091242A4BE
:1041D0001216D4024296751007024296E50E450F5C
:1041E0007058850C82850D83124475850A82850B73
:1041F0008374071242FD1242B31242FDA3E08512FE
:1042000082851383F0E82402FAE439FB8A82F5837D
:104210001242B3A31228141242BB1229341242BF15
:10422000F0E82405F8500109F58289831242BFA302
:10423000124303A3A3A3A3F0805C75100B805774F3
:104240001D12170A12440B604A12447B880CF50DAC
:10425000E8450D603E742512170AE0F5107810123B
:104260001945780E121941780A1219417808121965
:1042700041740712170AE0F9EEFCEFFDAA16AB171E
:10428000850C82850D8312172C74071216D4E9F55C
:1042900010800375100EA910740502360A35091234
:1042A00042A322FB1210A7740222E0F50A750B004C
:1042B000780A22E08508828509832212430D2212A2
:1042C000430DA3A322E0F50E750F00780E221242D3
:1042D000D222E0F8A3E0F583888222850C82850D46
:1042E000831242D2E0229002EF1242ED22E0FCA3C0
:1042F000E0FD22123995F8E4C8F9EA2822F0888214
:10430000898322F088828983A312430D22E08508E5
:1043100082850983A3A32274EE12172E74FE12164F
:10432000BE8A088B09ECFEEDFF890AAC18AD1912A4
:1043300043F470030243E585188285198312440B08
:1043400070030243E0A312447A880EF50FE8450F8C
:1043500070030243E0741412170AE0F510A3E0F5AD
:1043600011E50AF50B780B121945741912170A1288
:1043700019587810121941741B12170A1231CEAA5B
:1043800008AB09850E82850F8312172C740512164F
:10439000D4E9F50B705274FE650A604C850C828579
:1043A0000D83E064027041124402FAA3E0F9EAF8D6
:1043B0007402687003742969702E851082851183D8
:1043C0001242F3F50CE439F50D780C121941EEFCAC
:1043D000EFFDAA08AB0912076574021216D4800813
:1043E000750B0E8003750B01A90B74021216D47F96
:1043F0000A021800EEFAEFFB1205DF8A0C8B0DEAB9
:104400004B2212447A8882F583E022123001124452
:1044100012221206E18A828B83E58245832274F69A
:1044200012172E74FE1216BE740C12170A1244755F
:10443000E8851882851983F0740112170AE9F0E4FF
:10444000F508F5097808121941750802780812195B
:1044500041740412171488088909780812194179DF
:10446000FE12074D74061216D474021216D4023EC0
:10447000218E828F8312447BF922A3E0F8A3E022ED
:1044800074F712172EEAFEEBFF890890030612421A
:10449000E9120FE7EA5402600BA908EEFAEFFB12EB
:1044A00005D3800279017F0102180074F212172EE1
:1044B00074FE1216BEEAFEEBFF740169601374020B
:1044C0006960030245597901120963E960030245F5
:1044D00059EEFAEFFB12072FEA4B6003120735A8DB
:1044E00018A91988088909780812194175080275F0
:1044F000090078081219417508A375098178081216
:1045000019417CFF7DFF7A017B001205D9740612E8
:1045100016D4803B850882850983A3A3A3A3A3A304
:104520001242CE1242E9EEFAEFFB120FCFE4F50C85
:10453000F50D780C121941740212170A1219587CE1
:10454000FF7DFFAA08AB091205E574041216D48A90
:10455000088B09E508450970BB74021216D47F0662
:1045600002180074F412172E8A088B09ECFEEDFF76
:10457000901597E0F460487A097B001210CBEA4B63
:10458000603D8A828B8374B1F0A3E41245C2122885
:1045900015A3E508F0A3E5091245C2A3EEF0A3EFC9
:1045A000F0740C12170A1244758A828B83A3A3A39A
:1045B000A3A3A3A31239A5901597E0F91210D7026F
:1045C000296AF08A828B83A3A3A3A322C082C0831B
:1045D0009061907404F0A37448F0A37402F09061A9
:1045E000807440F09061BC7403F09061877419F09E
:1045F000906265741BF0906249E0C3941390619CD3
:1046000040107409F09060667401F090619F742806
:10461000800D740BF0906066E4F090619F742CF054
:104620001247B17009C29190037A746780059003B4
:104630007A7461F0902656E493906186F09026504B
:10464000E493F46006E493F9120A537905120D110C
:10465000024A1AC082C083E9540FF9906185E0696B
:104660006012E5C654B84441F5C6E59E544764411E
:1046700070F8E9F053C6B8E59E544770FA024A1A3A
:10468000C082C083A8A853A87E906181E412548F91
:10469000C2BA539AFEC289759B00C2C275E9007501
:1046A000910075BF0075A91175B905906181F0A3DE
:1046B00074C0125C13D2BA439A0174805842A802A3
:1046C0004A1AC082C08374F81216BE900378125E34
:1046D000A87003024792900378E05440601779086D
:1046E000AA18AB19120B4FAA18AB191207CB9003DB
:1046F00078E054BFF0E054806010790C7A477B0575
:10470000120B4F900378E0547FF0E0A2E0501912B2
:1047100047B17009C29190037A7467800590037A5B
:10472000746112479A54FEF0E0540260191247F681
:104730007009D29190037A7471800590037A746A3B
:1047400012479A54FDF0E054046009902654124731
:10475000A354FBF0E0540860099026551247A35477
:10476000F7F0E0541060099026561247A354EFF07A
:10477000E05420600A1207D7900378E054DFF0A3DA
:10478000E05401600D120A711207DD900379E054C4
:10479000FEF074081216D4024A1AF01207D19003E0
:1047A00078E022E493906186F01207D7900378E0D6
:1047B0002290619A1249EE900521E0640122C082A4
:1047C000C083E9600514601780291247B17009C2DF
:1047D0009190037A7467801A90037A74618013123F
:1047E00047F67009D29190037A7471800590037A2C
:1047F000746AF0024A1A90619A1249E0900521E029
:1048000064012274EA12172E74F41216BE908112FB
:10481000AC18AD1974041215D190265493F46003AA
:10482000024975907808E0C39402500302495990F8
:1048300080EA740412172474081215D1A818A91953
:1048400088148915740412171488088909AE08AFF2
:10485000097510FF7511FF750EFF7C00750C48750A
:104860000D78801274086C70030248EE74096C6055
:104870007D740A6C6078850C82850D83780812152A
:104880006A8E828F83A909E50AC9F512741878081F
:10489000121493E5124508F8C3E098A3E099850C3B
:1048A00082850D83780812156A40188E828F837472
:1048B000187808121493E5124508F8E0C398F8A395
:1048C000E0801A74187808121493E5124508FAE982
:1048D000FB8E828F83125B27EAC398F8EB99F9C3AA
:1048E000E89510E995115006881089118C0E0CE599
:1048F0000C2404F50C5002050DECC3941350030274
:10490000486474FF6510700474FF65116025E50E3E
:10491000F508740278081216AB74482508F58274FD
:10492000783509F583780812156A85148285158310
:10493000E508F0EE2402FE50010F851482851583F0
:10494000A3858214858315740C12170AE5826E7094
:1049500003E5836F6003024851750801750900780B
:104960000812194174021217247A957B0912102F2C
:1049700074021216D4740C1216D47F0E021800C0E2
:1049800082C0839061AE7468F0A3746AF09062454F
:1049900074FBF0A304F053F4FD43FE029005217470
:1049A00001F09061A0E0643A90619A70191249EEAA
:1049B000740164017009C29190037A7467801E903B
:1049C000037A746180171249E0740164017009D29E
:1049D0009190037A7471800590037A746A024C098D
:1049E000743FF0A3745AF09061A0747FF022743386
:1049F000F0A37455F09061A0743AF022C082C08395
:104A00009004D3E06401700A9004D8E06004790C4B
:104A1000800279008004A2E092AFD083D0820201AC
:104A20001FC082C08375E1F19004D6E0605314602A
:104A30000914605714604F147056120A839004C50D
:104A4000E0F97AC67B04120C9390811A1215881231
:104A50000CC990814A121588120C9F9004D7E0F976
:104A6000120CAB7901120D059004C3124D77241A74
:104A7000F582E438F583749BF0A3740AF079008022
:104A800099120A8980B7120A8F80B2120A9580ADF6
:104A9000791280EB74F412172E75D90D9004CCE0C6
:104AA000A2E0E4331313F8124C64484401F5D975BD
:104AB00082C6758304124C6E7004E583640470F53D
:104AC0007582CD758304124DD0E58264D37004E500
:104AD00083640470F175E1959004CCE0F97ACD7BA4
:104AE00004120C999015BB7429F0A3740A124BB8E8
:104AF000124BF6124BED124D3F9004D6E06401903C
:104B000004C3700B124B4912156A90811E80091262
:104B10004B4912156A90812278081214DE90812E7A
:104B200078081215449004C3125A23E438F58378A8
:104B3000081215799004C3124D77124BE47413F0E8
:104B40009003767402F0025B14125E30A3A378081F
:104B500022C082C083124C54F5D97582C675830475
:104B6000124C6E7004E583640470F59004DCE06020
:104B70000A78C37904FA124D08DAFB124CF7124C8A
:104B80006E7004E583640470F59004FCE0600D78B9
:104B9000C37904FAE8243A124D0BDAF875E19590DE
:104BA00015BB7435F0A3740A124BB8124BC27412C1
:104BB000F090037674018051124D28742FF0A37485
:104BC0000A22124BF6124BED124D439004C3125AB7
:104BD00027E438F58374FF12547D9004C3124D7B93
:104BE000124BE4222414F582E438F58322F0A374F6
:104BF00047F0A3740A22124BFA22124BFE22F0A3B2
:104C000074AFF0A3740B22F0A3F0024A1AC082C062
:104C100083124C544402F5D97582C6758304124C34
:104C20006E7004E583640470F59004DCE0600A783B
:104C3000C37904FA124D08DAFB75E1959015BB12A1
:104C40004C77F0A3124C77124BC57414F090037696
:104C5000740480B59004DC124C5B22E02407F5D983
:104C6000124C64229004C5E0C4333354C022E0F5F2
:104C7000D9A3E58264CC227441124C84124C84F096
:104C8000A3740A22F0A3740AF0A3744122C082C064
:104C900083124C544406F5D97582C6758304124CB0
:104CA0006E7004E583640470F59004DCE0600A78BB
:104CB000C37904FA124D08DAFB124CF7124C6E70ED
:104CC00004E583640470F59004FCE0600D78C3791A
:104CD00004FAE8243A124D0BDAF875E1959015BB09
:104CE000743BF0A3740A124D1E124BC27415F0905F
:104CF00003767403024C099004FC124C5B4404F5E7
:104D0000D97582C675830422E8241AF582E439F540
:104D100083E0F5D988828983A3A882A98322124DD2
:104D20002874AFF0A3740B22124D2C22124D39744B
:104D3000AFF0A3740B124D3922124BFEF0A32212D6
:104D40004D4322F09015C974AFF0A3740B124D2C93
:104D500074AFF0A3740B124BFAF022C082C08390A0
:104D600004C3124D772406F582E438F583E4024C3F
:104D700007851882851983124D7B22E0F8A3E0C8CD
:104D80002274F712172E9003A4125B1974A628F848
:104D9000740339F9E82405FAE439FB8A82125BF9D5
:104DA000A3A3A3A3A3A3A3A3A3125E8FA3A3A3A3BD
:104DB000A3A3A3E024FFF8A3E034FFF98A828B8346
:104DC000125E61024FB57C017903120BA3740222BB
:104DD000E0F5D9A3221250F03BF583E022F0EA245B
:104DE00084F582E43BF583E022EAF8EE28F8E43B20
:104DF000F9E82274F712172EEAFEEBFF9061D0E07B
:104E0000706875D90E75D90375D9047A00124DE909
:104E1000248D124E8440F67A00124DE92485124EFC
:104E20007E40F675E1957908EE248D124E77248543
:104E3000124E6F7C00ECF8C3E498FA95E0FBEE2A82
:104E4000FAEF3BFBEA248C125E05C0E0EE28F8E4A2
:104E50003FF9E824ACF582E439F583D0E0F00CECBE
:104E6000C3940840D0124F7780027900024FB5FA00
:104E7000E43FFB120B4322124E6F7904EE22124ED6
:104E80008A940422124E8A940822F582E439F5832A
:104E9000E0F5D90AEAC322C082C08375D90275D968
:104EA0000375D90575E195EA124F0F3B125B25EAB0
:104EB0002471F582E43B124F84024A1A74F61217E9
:104EC0002EEAFEEBFF9005277406124F1E121941C1
:104ED000124DC61216D475D90675D9037582277579
:104EE0008305124F157004E583640570F575E1952F
:104EF000900376E064087011124F0E3F125B25EEAE
:104F00002471F582E43F125E5F7901025063EE2462
:104F10006FF582E422E0F5D9A3E582642C22F075D6
:104F2000082775090578082274F612172EEAFEEB99
:104F3000FF9061D0E070337801900527740BF090FA
:104F40000376E06407701375082775090578081261
:104F50001941124DC61216D478051251DB124DD0EC
:104F6000DAFB75E195124F77800279000250637584
:104F7000E1957904120CCFEE246F125EAEEE24712F
:104F8000F582E43FF583E8F0A3E9F079012274F7B4
:104F900012172EEAFEEBFF75D90375D90375D90DEB
:104FA000EA24DF125CF2F5D9124F6F8008F0EEA20E
:104FB000E092AF79007F01021800E8C39A95E0C340
:104FC00065D0332274F612172E1250E460047A0F63
:104FD00080027A0B124FBA40437C09900527EC12ED
:104FE0005035125044DDFB125CEF601975082775CF
:104FF000090578081219417903EEFAEFFB124DCA40
:105000001216D47C0D1250201250DB70FB75E19506
:105010007904120CCF125164790180027900804327
:105020001250268C082274012CF5D975D90375828B
:105030002775830522F0EE24E4F8E43FF97A287B13
:10504000057D082288828983E08A828B83125E979D
:10505000A3A882A9838A828B83A3AA82AB8322A27C
:10506000E092AF7F0202180074F612172E1250E47D
:1050700060047A0C80027A08124FBA405A7806907F
:105080000527740CF0900393E0900528F0900394AA
:10509000E0900529F0900395E090052AF0900396A2
:1050A000E090052BF0900397E090052C125178606A
:1050B0001975082775090578081219417C067903C6
:1050C000EEFA124DCA1216D4780A1251721250DB3F
:1050D00070FB124F6F800279008088E0F5D9A3152C
:1050E00008E50822EAFEEBFF1250F03FF583E022CC
:1050F0009061D0E0F87480C398F8EA2484F582E4E3
:105100002274F612172E1250E460047A0880027A94
:1051100004124FBA40497802900527E8F0EE24F6D1
:10512000125CF290052812517860197508277509EC
:105130000578081219417C027903EEFA124DCA1261
:1051400016D478061251721250DB70FB75E195127D
:1051500051647904120CCFEE240D124F7A8002793B
:1051600000025063EE241DF582E43FF583E4F0A3D2
:10517000F0221251E1880822F0EE2484F582E43F07
:10518000F583E02274F612172E124DD560047C08C8
:1051900080027C04E8C39C124FBD403A780290051F
:1051A000277407F0EA24F7125E05900528124DDDFA
:1051B000601575082775090578081219417C0212D7
:1051C0004DC81216D478061251DB124DD0DAFB7599
:1051D000E1957901800279000250631251E1E8FA09
:1051E00022740128F5D975D90375822775830522A4
:1051F00074F612172EE9FEA2AFE433FDC2AF7C00B5
:1052000080010C125E02F8ECC3985014ECF8EA121C
:105210004DEC246AF582E439F583E06E70E4801881
:10522000EA246EF8E43BF9E0F508EA2508FAE43BE5
:10523000FB1252C9EE125380ED02505F74F6121742
:105240002EEAFCEBFDA2AFE433F508C2AFEA246E10
:10525000F582E43DF583E014F0EA246AFAE43DFBCC
:10526000EA2403F8E43BF9E8FEE9FF8A828B83A392
:10527000A882A983E08A828B83F0E8FAE9FBEE6AD0
:105280007002EF6B70E5EC246DF582E43DF58374FC
:10529000FFF0EC2469F582E43DF583E4F0E50802D3
:1052A000505FC082C083A2AFE433F8C2AF1252C9CC
:1052B000E9F0EA2469F582E43BF583E4F0125E024A
:1052C00070037401F0E8024A16EA246AF582E43BAE
:1052D000F5832274F312172EEAFEEBFFECFAEDFBD6
:1052E0008C82F583A3A3A3A3E0541FF0EE2436F52C
:1052F00082E43FF583E4F0750800EE245DFCE43FB2
:10530000FD8A828B83E08C828D83F0750900E5082D
:1053100033333354F8F50C8A828B83E0F50A750B2E
:1053200000E509780A12168CE50AA2E05027EE245F
:1053300036F8E43FF98882F583E0F50AEE250AF5B0
:105340000AE43FF50BE50A2438F582E4350BF583D2
:10535000E50C1253800509050CE509C3940840B714
:1053600005088A828B83A3AA82AB838C828D83A358
:10537000AC82AD83E508C3940540867F0502180022
:10538000125E97E004F022C082C0839003A2E06422
:105390000170030254757C009003A8E0600302547E
:1053A00075125C11A3F090040804F090040DF090C5
:1053B00003AB12547C9003B504F09003DBE4F0904F
:1053C00003BE125483A3F0900426F090041AF090C8
:1053D0000429F090040E7480125C13900414F09071
:1053E000049212549590049BF090042AF090047A51
:1053F000125495A3F0A3F0900486F0900488F090E6
:105400000484F090049E1254959004B1F09004AB83
:1054100012548374FF9004107804F0A3D8FC7A032C
:105420007B0478B67904125044E864BB7003E964E5
:105430000470F3788A790388828983E0C0E0ECFA0B
:10544000748A2AF582E43404F583D0E0F00C888273
:105450008983A3A882A983ECC3940840DA9003A2AD
:10546000E004F0640170089003AAE09003A4F07ACD
:10547000A67B0380047A007B00024A1AE412548F50
:10548000A3F0221254872212548FA312548F22F0B9
:10549000A3F0A3F022125487A3F0A3F022C082C08D
:1054A000838A828B83A3A3A3E0600F8A828B83A36A
:1054B000A3A3E4F09003A3E014F09003A2E014F09F
:1054C00070069003A474FFF08A828B83A3A3E4F098
:1054D0009004BBE0700D9003A3E0640170057900B7
:1054E000120CB1024A1AC082C0839003A9E4F09062
:1054F00003A8F09003A2F0A3F0A374FFF075E1F10C
:10550000024A1A74E812172E74F41216BE85188215
:10551000851983EAF0A3EB125AA5125A4F1215947B
:10552000740212170A1215A088828983A3A3A3A369
:10553000A3A3125B27740612170A125E6174241269
:10554000170A121954740612170A121588122355D5
:1055500074041216D4E960030259B0125A79121970
:1055600054742812170A1215881223B174041216E3
:10557000D48A088B098C0A8D0B125A8E700302583C
:1055800052124D712475F582E438F583C082C083D0
:10559000851882851983125A43A3125B27D083D0C2
:1055A00082E0C398F50CA3E099F50D125A8E6402BF
:1055B0008518828519837008125A23E83401800304
:1055C000125A39F583E0F510A3E0F511850C148526
:1055D0000D15751600751700E4F512F5137814799A
:1055E00010121311740812170A7814121579125A2E
:1055F00079781012156A740812170A78101214DEDE
:10560000781012193D742812170A121588122355A2
:1056100074041216D4E97003025852851882851951
:1056200083E0125A19F583E0F510A3E0F511E4F5D3
:1056300012F513740812170A7808121518780879E9
:10564000101214CB90817A78081214DE851014851C
:105650001115851216851317780879141213918580
:105660000814850915850A16850B17781479101208
:105670001311E50C2508FEE50D3509FF125E3D749A
:105680000812170AC082C083124D712478F582E493
:1056900038F583125A31E4F50AF50BD083D08278BD
:1056A000081214DE780879141214CB125A8E640191
:1056B00060030258A5851882851983E02477FCA32E
:1056C000E03400FD851882851983E0FAA3E0FB121F
:1056D0000B25124D71125A602420125AD1241CF548
:1056E00082E438F583E4125ADB241DF582E438F5B0
:1056F00083E4F0A3125ADB2407125A62125A10E014
:1057000028F8A3E039125A6C240B125AD1247A12C9
:105710005A62242EF582E43AF583E0687003A3E030
:10572000697042851882851983E0247EF582E43A07
:10573000125A662432F582E43AF583E0687003A3D6
:10574000E0697021851882851983E0247CF582E464
:105750003A125A662430F582E43AF583E068700321
:10576000A3E069605F124D71247EF582E438F58311
:10577000E0F50CA3E0F50D7404780C12169C780C7F
:10578000121941740212170A124D77247CF582E433
:1057900038F583121958740412170A124D77247AB7
:1057A000F582E438F583E0FCA3E0C313FDEC13FCC1
:1057B000740412170A125A43E0FA7B00120831747B
:1057C000041216D4851882851983E0242EF8A3E0EC
:1057D0003400F9E8FAE9FB8882125B258518828596
:1057E0001983E0FCA3E0CC240EF582EC3401125ABC
:1057F000D52477F582E438F583E0C0E0124D7124BA
:105800002BF582E438F583D0E0125AA5125A19120A
:105810005E83ECF0A3ED125ADB125A602430125A68
:10582000D1247E125A622432125ABD121633125AF1
:105830006D246F125ABD121633EA4B600A124D7175
:10584000124F0F38125CAE124D71125A9C7402F056
:105850008053851882851983E0242EFAA3E0340052
:105860008A82F583E0F50CA3E0F50DE4F50EF50F63
:105870007808790C1214CB90817A78081214DE859E
:105880000C10850D11850E12850F137808791012F2
:105890001391AE08AF09125E3DE4F50AF50B7808E6
:1058A000790C121311125E26125B27E8FAE988823E
:1058B000F583A3A3A3A3A3A3A3A385080C85090D24
:1058C000850A0E850B0F780C1214DE740212170A6B
:1058D000780C1215798A828983E064407073124DC6
:1058E000712418F582E438F5837808121579851843
:1058F00082851983E02412F508A3E03400F50978C5
:1059000008121941740212170A124D772410F582F9
:10591000E438F583121958EE24FFF50AEF34FFF549
:105920000B780A121941740612170A125A39F583B4
:10593000E0F50AA3E0AA0AFBE4FCFD1224F17406D8
:105940001216D4AC08AD09740212171C12242F8051
:1059500009740612170AE4F0A3F0851882851983EA
:10596000E0125A4FE82408FCE439FD74061215D100
:10597000740212170AC082C083125E26E02402FC61
:10598000A3E03400FDD083D08274061215D1124DED
:10599000712435F582E438F583E0C0E0124D7124BE
:1059A00034F582E438F583D0E0125AB6FB121B19A5
:1059B000124D71240BF582E438F583C082C0831246
:1059C0004D712407F582E438125B25D083D082E044
:1059D000C398F8A3E099125A6C125A06E8F0A3E9AA
:1059E000125AB6CA125A10C3E098A3E099500D8516
:1059F0001882851983E0125A06125C11740C121673
:105A0000D47F10021800240CF582EA3401F58322B9
:105A1000240DF582E43AF58322247AF8A3E03400D9
:105A2000888222125A2722E0F8A3E0C8240EF582C9
:105A300022E0F508A3E0F50922124D7B242EF58221
:105A4000E43822125A4722125E34A3A3A3A322F8F9
:105A5000A3E0F5838882125EB48882F583A3A32233
:105A6000247CF582E438F583E0F8A3E0F985188218
:105A7000851983E0FAA3E0CA22851882851983126A
:105A80005E30124D7B2408F582E438F583228518B8
:105A900082851983124D7B125A9CE0222474F58270
:105AA000E438F58322125AA922125AAEE022F08578
:105AB000188285198322125AA9FAA3E022F582E4FA
:105AC0003AF583E8F0A3E9F0780079FAECFAEDFB17
:105AD00022F582E43AF583E8F0A3E9125AA9F8A383
:105AE000E0C82274F412172E780079009003A9E020
:105AF0006018125DE5780812193D7AA67B03120B37
:105B00000774041216D478A6790388828983A3A324
:105B1000A3A3E0F97F04021800E0F875F010A4C810
:105B2000AAF02AF922F583125EB42274F612172E17
:105B300074FC1216BEEAFEEBFF9004BDE0F8900480
